:1000000000000120750300005D0300005F03000095
:1000100061030000630300006503000000000000AE
:100020000000000000000000000000006703000066
:1000300069030000000000006B0300006D03000076
:100040006F0300006F030000151800007118000016
:100050006F0300006F030000C51600006F0300006F
:100060006F0300006F0300006F0300006F030000C8
:100070006F0300006F0300006F0300006F030000B8
:100080006F030000B50E00006F0300006F03000057
:100090006F0300006F0300006F0300006F03000098
:1000A0006F0300006F0300006F0300006F03000088
:1000B0006F0300006F03000000000000000000005C
:1000C0006F0300006F0300006F0300006F03000068
:1000D0006F0300006F0300006F03000000000000CA
:1000E0000000000000000000000000000000000010
:1000F0000000000000000000000000000000000000
:1001000000000000000000000000000000000000EF
:1001100000000000000000000000000000000000DF
:1001200000000000000000000000000000000000CF
:1001300000000000000000000000000000000000BF
:1001400000000000000000000000000000000000AF
:10015000000000000000000000000000000000009F
:10016000000000000000000000000000000000008F
:10017000000000000000000000000000000000007F
:10018000000000000000000000000000000000006F
:10019000000000000000000000000000000000005F
:1001A000000000000000000000000000000000004F
:1001B000000000000000000000000000000000003F
:1001C000000000000000000000000000000000002F
:1001D000000000000000000000000000000000001F
:1001E000000000000000000000000000000000000F
:1001F00000000000000000000000000000000000FF
:10020000354936480A1A02D0072291438D463449AF
:1002100034480A1A06D00722914381F30988022242
:1002200082F3148830483149314A00F044F83148AB
:100230003149324A00F03FF831483249324A00F041
:100240003AF832483249334A00F035F832483349F7
:10025000334A00F030F833483349344A00F02BF881
:1002600033483449344A00F026F8344834490022EF
:1002700000F02CF833483449002200F027F83348C6
:100280003349091A082902DB002202604160314A21
:1002900090471F481F49884205D00268043003B4C4
:1002A000904703BCF7E700208646EC46002000217B
:1002B000294A9047FEE7884207D0521A05D00378B2
:1002C00001300B700131013AF9D17047884202D0F8
:1002D00002700130FAE770470000012000E00020C2
:1002E0000000012000000120482F00000000002035
:1002F00038000020D0030000D00300009E2A000038
:10030000482F000000000020000000200C2B0000FF
:100310000C2B00000C2B00000C2B00000C2B000001
:100320000C2B00000C2B00000C2B0000462F0000B3
:10033000802F000038000020380000203800002006
:100340001A0700201C0700201C0700201C070020A3
:100350001C2700209D03000001250000FEE7FEE7AA
:10036000FEE7FEE7FEE7FEE7FEE7FEE7FEE7FEE765
:1003700000F002B8FFF7FCBF0F484FF007018843B9
:1003800085460E4880470E48016841F470010160BF
:10039000BFF34F8FBFF36F8FFFF732BF09480A4992
:1003A0000A4A884207D0521A05D0037801300B70F0
:1003B0000131013AF9D170470000012059260000AF
:1003C00088ED00E00C2B0000000000200000002061
:1003D000F0B595B01D46164608460C4601F064F887
:1003E0001A9B0D93CDE9086500252B46082205A927
:1003F00020460A958DF82C500C9501F072F8079B59
:100400000293069B03939DF814308DF8115003F06E
:100410000302012A1DD1BDF81420059DC3F3C203B8
:10042000C2F383168DF81030B20008230EA92046BF
:1004300001F057F8C5F3952508AB0093324602AB9F
:100440000EA9284600F0E0FB204601F031F815B077
:10045000F0BD022AF8D1BDF81650C3F3C203C5F3AC
:1004600089158DF810300827082D2E4628BF08263C
:100470003B4632460EA9204601F033F8AD1B08ABCF
:1004800002AA31460EA8374400F022FC002DEBD121
:10049000DAE70000014B01221A7070477900002052
:1004A0007047000070B5124D06460FCD88B06C46FF
:1004B0000FC495E80F00002E84E80F004FF0FF33C3
:1004C0004FF00602CDE90023CDE90233094A0A487C
:1004D0004FF0EB7308BF00226946069301F098F8CD
:1004E00008B100F08BFC054B1E7008B070BD00BF5A
:1004F0000C2B0000950400000000002038000020B4
:1005000007B5044B0093044A4023FFF761FF03B093
:100510005DF804FB1D0500003900002038B50D4BC7
:100520000D4D002018700D4804782D5DD2B21C4688
:1005300065B1043001F06AFF08B100F05FFC084BC0
:100540001A7812B12378002BFBD038BD0C3001F0A3
:100550001FFDF1E779000020340600200000002094
:100560003800002008B50848084A0378D35C3BB13E
:10057000043001F0BBFEBDE808400020FFF792BF49
:100580000C3001F09BFCF6E7000000203406002050
:100590000120FFF787BF000008B5FFF7F9FF044807
:1005A000042100F09BFA034B01225A7108BD00BFE1
:1005B000E82A000014000020037813F0040216D08B
:1005C00003F00303012B03D0022B09D00120704755
:1005D0000A6800880232C0F3831002440A60F5E71B
:1005E0000B684288023303EB92130B60EEE7104670
:1005F000704700002DE9F04F044685B0861C0020AE
:100600000F46154600F052FC3F4A51683960936826
:1006100003F580735B1A924602F21C4702F5836968
:1006200002F21448B34219D30020002D68D004F020
:100630000F039B0143F0050363F30F00DAF8043066
:10064000DAB203321E444AF822000020CAF80460DD
:1006500000F02EFC012005B0BDE8F08F01213846E6
:1006600000F055FC484600F06AFC404600F067FC8C
:10067000DAF808000090C0B203300AEB8000694647
:10068000FFF79AFF009B30BBDAB20AEB8202D16817
:1006900001919A1C0133DBB20AEB83030092D3F879
:1006A0000CB001F00303012B22D0022B15D083469E
:1006B000404600F047FC10B1009BCAF8083059468C
:1006C000384600F024FCDAF80830DAF8042003F5A4
:1006D00080739B1AA6E7D8B2CEE7BDF80630C3F305
:1006E000891303334FEA1B4B02EB93030093DFE7BD
:1006F000BDF80430C3F383134FEA1B4B1344F5E7F3
:10070000A40544F0060099E74C010020064B074879
:1007100010B500221A7000F080FE044610B904489B
:1007200000F0E9FE204610BD4C010020F82A000030
:10073000602B000030B50A4C71B10A4A0A49121BFD
:10074000D20800239A4201D1002030BD31F8235055
:10075000854202D00133F5E7034654F83300F4E74D
:10076000A02A0000E82A000000000020094B0139FF
:1007700003EBC000032909D8DFE801F00A020406F0
:100780000420704700797047407970470020704717
:1007900002207047A02A0000034BD3E90130C31A9E
:1007A00058425841704700BF4C0100202DE9FF41DD
:1007B000FFF7F2FF0546002840F0E280714CC4F8D4
:1007C0001804BFF34F8FA3680093DBB2033304EB2D
:1007D00083006946FFF7F0FE009B18B1D4F8182497
:1007E000002A55D0DAB2991C013304EB8202DBB245
:1007F00004EB8303D268DB68029302F00303022B4D
:10080000019200914FD1BDF806305F48C3F38917BC
:10081000502F3E4628BF502666F38F1306F108017D
:10082000ADF8063000F011FE0546002800F0938078
:1008300000F03AFE002301A90822284600F047FEF6
:100840000099CB43DBB20133C9B20331B6EB830F5E
:100850004FEA830804EB810122D908234246A6EB24
:100860000806284600F033FEF6B2484908F10803AE
:100870003246284600F02BFE009B033703EB970718
:100880000097D4F81834002B41D1D4F8106451E00B
:1008900062689A4299D8A260284604B0BDE8F08107
:1008A00008233246E5E7012B55D1BDF80430364820
:1008B000C3F38311062928BF062161F3891302318E
:1008C0008900ADF8043000F0C0FD0546002842D094
:1008D00000F0EAFD0023082201A9284600F0F7FDF8
:1008E0000026BDF80420C2F38312B300964203F140
:1008F0000803C6D200994A1CC9B20331009204EB26
:1009000081010422284600F0E2FD0136E9E728468D
:1009100000F0CEFDFFF740FF80F00100C5B2BBE75D
:10092000F3685B7923B1336829461B6830469847E2
:10093000F3681E68002EF3D1284600F0B9FD30465A
:1009400000F0B4FAD4F818340BB9009BA36000206F
:1009500000F0AEFADEE7D4F8104454B90C4B0D4861
:100960000D49C01AC008000440F0020000F05CF815
:10097000D0E7236820469B689847E3681C68ECE74B
:10098000002589E74C010020F82A000058010020CA
:10099000A02A0000C82A0000492B00002DE9F347D7
:1009A00004460E46924601A9012218469946FFF7D1
:1009B00021FE1B4F10B3019D4FF00008AA1CC84533
:1009C00008EB020123D11748002100F07DFA80F3E3
:1009D0001000000440EA1440E4006B1C04F03804EA
:1009E000DBB2EDB244F0010407EB8303033544EAC4
:1009F000881444EA8624D86047F825403B781BB128
:100A0000FFF7D4FE0028FBD102B0BDE8F087C9B2E1
:100A100007EB81015AF82830CB6008F10108CEE7D6
:100A20004C0100206805002000231A46FFF7B6BFDE
:100A30002DE9F7430446D01C8846164601A900223A
:100A40008008FFF7D7FD234D80B3019FB81C0190AC
:100A5000C0B2C0F58073B6EB830F00F103004FEA1C
:100A6000830905EB80002AD83246414601F08BFF0E
:100A70001948002100F028FA80F310007B1CDBB23B
:100A8000FFB2220C05EB8303033742EA0040E40087
:100A9000D86004F0380455F8273044F0020444EAE2
:100AA000865203F47C131A4345F827202B781BB198
:100AB000FFF77CFE0028FBD103B0BDE8F0834A4677
:100AC000414601F060FFA6EB090208EB090105F1C0
:100AD0000C00CBE74C0100206805002030B50F4921
:100AE000D1F8102403460020144634B9DC68207184
:100AF0004AB9C1F81034226030BDE46825798542D6
:100B000006D02468F1E7D268116821601360F3E72A
:100B100001300A28E8D14FF0FF30EDE74C0100200A
:100B2000084A38B50123D2F8104413701D4604B9A1
:100B300038BDE3685D71236820465B689847E368C9
:100B40001C68F4E74C01002007B503460846197AF3
:100B5000052911D05B7A2BB1094A0A49019000F0AE
:100B60004BFA01980849019000F046FA019803B049
:100B70005DF804EB00F035BA002AF8D0F2E700BFC8
:100B80006C2B0000712B0000912B000030B5C38846
:100B900085B004460D4633B1144A00921449154AF3
:100BA000284600F029FA217A05291DD0637A4BB135
:100BB000A088FFF7DBFD104B104953F82020284692
:100BC00000F01AFA227A0E4BA08853F822200392E2
:100BD0000021FFF7AFFD039A0A490346284605B0F6
:100BE000BDE8304000F008BA05B030BD6C2B000005
:100BF0007C2B0000742B0000F82B0000712B0000F0
:100C00001C2C0000942B00002DE9F04385B01F46FA
:100C10000C9D002395F80C902B7306460C469046CD
:100C200029463846FFF7B2FFB8F1060F09D8DFE8CA
:100C300008F00412181F283340003146284600F0FF
:100C4000DBF9002229463846FFF77EFF85F80C9035
:100C500005B0BDE8F08322683146284600F0CCF9A3
:100C6000EFE7D4E900233146284600F0C5F9E8E76C
:100C7000A36800933146D4E90023284600F0BCF96C
:100C8000DFE7E3680193A36800933146D4E90023CA
:100C9000284600F0B1F9D4E723690293E368019391
:100CA000A36800933146D4E90023284600F0A4F954
:100CB000C7E76369039323690293E3680193A36819
:100CC00000933146D4E90023284600F095F9B8E7AF
:100CD00008292DE9F74F80460E4617461C463CD89A
:100CE000002593F80C901D7319461046FFF74EFF30
:100CF000DFF888A0DFF888B0AE4231D918F80520B7
:100D00005946204600F078F90135082DF4D11949EB
:100D1000194DDFF870A0204600F06EF94FF0000B7F
:100D20005E4522D918F80B207E2A05D8104601927C
:100D300001F024FE019A00B92E225146204600F00F
:100D40005BF90BF1010BBBF1080FE9D10122214640
:100D50003846FFF7F9FE84F80C9003B0BDE8F08F39
:100D60005146204600F048F9CEE72946204600F0DB
:100D700043F9E6E7A82B0000A62B0000A42B0000F7
:100D80009E2B0000AA2B0000044B1A5C0123934009
:100D90004FF0A042C2F80835704700BF302C000069
:100DA00008B50020FFF7F0FF0120FFF7EDFF02205C
:100DB000FFF7EAFFBDE808400320FFF7E5BFC207E1
:100DC00008B501460CD54FF0A0430322C3F84427D1
:100DD000C3F84827C3F84C27C3F85027FFF7E0FFB4
:100DE0008B070AD54FF0A0430C22C3F83427C3F871
:100DF0003827C3F83C27C3F8402708BD1FB500219A
:100E0000039001AA44F20100CDE9011100F004F8B9
:100E100005B05DF804FB000010B572B6FFF780FE68
:100E2000FFF7C4FC0028FBD1104B114C1149E41A08
:100E3000E408240444F00100FFF7F6FD0E4B1B68A4
:100E4000DB0700D500BE0D4944F00200FFF7ECFDC2
:100E5000BFF34F8F0A490B4BCA6802F4E062134399
:100E6000CB60BFF34F8F00BFFDE700BFA02A00009B
:100E7000C82A00003F2C0000F0ED00E04B2C0000E1
:100E800000ED00E00400FA0572B6024A136801336F
:100E90001360704704060020034A1368013B136087
:100EA00003B962B6704700BF04060020FFF7ECBF2D
:100EB000FFF7F2BF024B034A1B681068184700BFD8
:100EC000100600200806002010B5034653E8000F66
:100ED0000A4643E8002494F0000FF7D110BD10B586
:100EE000034653E8002F42EA010043E8000494F06F
:100EF000000FF6D110BD10B5034653E8000F00EA0D
:100F0000010243E8002494F0000FF6D110BD10B5A3
:100F1000034653E8002F02EB010043E8000494F07D
:100F2000000FF6D110BD10B5034653E8002FA2EB19
:100F3000010043E8000494F0000FF6D110BD012138
:100F4000FFF7CDBF0021FFF7D6BF10B590B1D0E9B4
:100F5000012301689B1ADBB20A60013BDBB2FF2B65
:100F6000026802D10020107110BD11684C1C146081
:100F70000B70F2E70E20F7E738B504460020FFF7C4
:100F800095FF226863681168994213D9481E106062
:100F900011F8015CE368218A01FB0535A36811792A
:100FA0001B1ADBB2994200D213710020FFF780FFB9
:100FB000284638BD0025F8E738B5054600200C4620
:100FC000FFF774FF2A681368591C1160E968641AF6
:100FD000298AB4FBF1F41C70BDE838400020FFF70B
:100FE00067BF826810B504462AB143690168006989
:100FF00098470023A36010BD0EB403B5039921B137
:1010000004AB01AA019300F077F802B05DF804EB9D
:1010100003B070470A2938B504460D4602D10D21A8
:10102000FFF7F8FFA3682268591CA160D554D4E9E2
:1010300001329A4204D32046BDE83840FFF7D1BFC1
:1010400038BD00002DE9F84F9846DDE90A43154602
:1010500082460F460A464FF00109AA420FD2C14507
:1010600038BFC14613F0010B01D16CB90024012631
:10107000B8F1010F1BD908F1FF386E43F8E709F109
:101080000109B2FBF5F2E8E79B070ED5B8F1000FB6
:101090000CBF30262026A145E9D2013C31465046FE
:1010A000FFF7B8FF002CF6D1E0E72026F3E7B7FB07
:1010B000F6F39D42E1D9DFF83C80B7FBF6F35046EA
:1010C00018F8031006FB1377FFF7A4FF3346AB4273
:1010D000B6FBF5F6F1D2BBF1000F02D00CB1A14581
:1010E00001D3BDE8F88F20215046013CFFF792FF65
:1010F000F4E700BF622C00002DE9F74F05461746C4
:101100008846002900F0428118F8011B49B92B7B61
:10111000002B00F03B81284603B0BDE8F04FFFF7FD
:1011200060BF252940F0B780002698F800302D2BAD
:10113000424608F1010823D0302B24D02B2B25D098
:1011400000242A2B02F1010123D13B681A1D1B68E0
:101150003A601C440A4613782E2B26D101324FF0F8
:10116000000A104610F8011BA1F1300CBCF1090F68
:101170001DD80A2303FB0A13A3F1300A0246F0E745
:1011800046F00106D1E746F00206CEE746F0040637
:10119000CBE711F8013CA3F130000928DBD80A2283
:1011A00002FB0434303C0A46CBE74FF0000A12F849
:1011B000011B01F0FB0068289046F8D0782909D877
:1011C0006F290CD8632962D022D8252963D05829E9
:1011D00000F0888098F80030002B95D197E770399F
:1011E0000829F7D801A353F821F000BF67130000C6
:1011F000D5110000D5110000F5120000D511000036
:10120000D3120000D5110000D5110000E512000036
:10121000642901D06929DDD13A68D2F80090111D06
:1012200089EAE9723960A2EBE9724FF0010B092AF1
:1012300035DCD34538BFD3462CB1B9F1000F01DB03
:10124000720700D5013CB30702D5BAF1000F03D0F5
:10125000F00701D44CBB0024B9F1000F2DDAC9F11D
:1012600000092D212846FFF7D5FE06F00302022AC9
:1012700004D1BAF1000F01D11CBB0024CDE9004616
:1012800053460A2249462846FFF7DCFEA2E73B68A0
:101290001A1D19783A602846FFF7BCFE9AE70A2320
:1012A0000BF1010BB2FBF3F2C1E7A345D4D220212D
:1012B0002846013CFFF7AEFECCE77107D5D52B21C0
:1012C000D0E7A345DAD230212846013CFFF7A2FE41
:1012D000D2E73968CDE900460A1D3A6053460A2232
:1012E0000968D0E739680A1D3A60CDE900465346DF
:1012F0001022F5E73B681A1D3A6016F00106D3F894
:10130000009028D1B9F1000F03D0484601F097FBB7
:101310000646B44200D904BB09F1FF3919F8011F90
:1013200000293FF457AF2846FFF774FEF6E728463A
:101330000136FFF76FFE19F806100029F7D1A64213
:10134000BFF448AF002C3FF445AF20212846013CB4
:10135000FFF760FEF3E70026EDE720212846013C79
:10136000FFF758FED5E73B681A1D3A603021284642
:101370001C68FFF74FFE78212846FFF74BFE00223E
:101380000823CDE90032214610227CE703B0BDE8F6
:10139000F08F00BF2DE9F84FB0F806A04579D2F8DC
:1013A00000B09DF828900AFB05F5043D88460BEB3C
:1013B0000301A94203F1040488BFA5EB030BB4FBAE
:1013C000FAF607460AFB1644C2F800B04EB9AAEB7B
:1013D00004055D4528BF5D46BBF1000F04D1BDE8A3
:1013E000F88F3F68013EF1E7043408EB06003C4407
:1013F0002A46B9F1000F0DD02146ABEB050B01F0E9
:10140000C2FADA452E443F6855464FF0000428BF23
:101410005D46E1E701462046EFE7FFF796BDF8B5E8
:1014200046790146721E0546002393422D6803D378
:101430000024A64202D8F8BD0133F6E70F6828461B
:10144000FFF7BAFD01343946F3E72DE9F843068A80
:10145000CD1C0746FFF790FD043E35440446B5FB1E
:10146000F6F5F0B14FF48073EDB28380C680013D94
:10147000076081464FF00008A84512D23846FFF7B2
:101480007BFD064648B163790133637108F10108B9
:10149000C9F8000007608146EEE72046FFF7BFFF6E
:1014A00034462046BDE8F88301210430FFF72FBD04
:1014B00010B5012104460430FFF735FD10F0FF0F91
:1014C00004D12046BDE81040FFF7A9BF10BD1FB5ED
:1014D00003920022009203AAFFF75CFF05B05DF8BB
:1014E00004FB1FB503920122009203AAFFF752FFEB
:1014F00005B05DF804FB836800225A60C3E904224A
:101500009A60DA601A6070477FB503788DF804300E
:101510004368029383688DF80C30C36804930369B1
:10152000064A8DF81430064B01A853F8213052F8C2
:101530002110984707B05DF804FB00BF1406002097
:1015400020060020F0B50546174615F804CB124AD0
:1015500042F82C70114A42F82C30114B0C460FCB3C
:1015600085B06E4686E80F002368009323798DF8D6
:10157000053063798DF80630A3680293002FA389A4
:10158000084AADF80C3008BF3A4663463146284653
:1015900000F09AF905B0F0BD2006002014060020E6
:1015A0007C2C0000091500001FB503788DF8003071
:1015B0004368019383688DF80830C368054A039334
:1015C000054B684653F8213052F82110984705B072
:1015D0005DF804FB2C060020300600201FB50378C0
:1015E0008DF800304368019383688DF80830C36834
:1015F000054A0393054B684653F8213052F82110F1
:10160000984705B05DF804FB2C060020300600204A
:10161000F0B5194B90F800C091F81DE043F82C206C
:10162000164B16460A6943F82C20154B03F80CE0BC
:101630000C4607460FCC89B06D460FC594E80F00E5
:1016400085E80F00CDF810C0BEF1000F09D0002EC4
:101650000C4A694608BF3246381D00F083FD09B0C8
:10166000F0BD002E084A694608BF324607F10C005B
:1016700000F06EFBF3E700BF300600202C060020D0
:1016800034060020A9150000DD15000000F180409F
:1016900000F5C040002382B0036003680193019B02
:1016A00002B07047800000F1A040D0F8002722F47B
:1016B0004032C0F80027D0F8003743EA0141C0F8B3
:1016C000001770472DE9F74F00244E4D01944FF459
:1016D0008072012102F1804303F5C04390B21B6880
:1016E000012B06D1D5F804330B4202D0FFF7CEFF11
:1016F0000C430432B2F5907F4FEA4101EAD1424BEC
:101700001B68012B0CD14FF4BE70FFF7BFFF4FF0E9
:10171000A04344F00044D3F820250192C3F82025CB
:1017200014F0FF0F1AD0394F00250126344210D093
:10173000AB0003F1804303F5C043D3F81005D3F8A1
:10174000101557F8253023B1C1F30141C0F304202F
:1017500098470135082D4FEA4606E7D1002C48DAB4
:101760002A4D4FF0A0482A4E4FF00009012716F9E4
:10177000013B5A1C31D0C3F3C20202A90A44DCB2B5
:1017800012F8042C03F03F0A03F0070307FA03F3EF
:101790001A4222D00AF5E073504658F82330C3F3BA
:1017A000014BBBF1020F0CBF03210221FFF77AFFAF
:1017B00007FA0AF3C8F8203505EB0A0393F930302D
:1017C00055F823304BB1A109032904D0BBF1020F16
:1017D00012D1012901D15046984709F10109B9F107
:1017E000040FC4D1D8F820350193C8F82035002B58
:1017F000B9D103B0BDE8F08FBBF1030FEDD10229E1
:10180000E8E700BF006000407C610040380600202F
:1018100088060020014B1B68184700BF9406002073
:1018200038B50B4B98420C4601D0002038BD002043
:10183000FFF73CFB074B1D7915B901221C601A719B
:101840000020FFF735FB002DEFD01120EEE700BFA1
:101850000020004094060020034B984201BF034B38
:1018600000221A601A717047002000409406002080
:10187000114BD3F8183182B0E3B1104B00221A603B
:101880001B680193019B0E4BD97FFF2907D0987FDE
:1018900001228A404FF0A04148B1C1F80C25002236
:1018A0005A771A72D3E90021064802B01047C1F8EE
:1018B0000825F4E702B070470030004018310040BE
:1018C0009C060020A40600202DE9F74F067901921E
:1018D0009A464FF02409624B09FB06F903EB090B0A
:1018E00007469BF81C200C469846002A40F0B4801E
:1018F00005685C492846FFF793FF002840F0AE805A
:10190000019B48F80930CBF804A094F800C0217B73
:101910004FF0A042012303FA0CF3012994BFC2F84F
:101920000C35C2F808350CF5E0734FF0010E42F8A3
:1019300023E06378FF2B1FBF0EFA03FEC2F80CE50D
:1019400003F5E07E4FF0030918BF42F82E90A2780D
:1019500008BF4FF0FF33FF2A1FBF02F5E07E4FF0B4
:10196000A04A4FF0040B4AF82EB04FF0240E0EFBA5
:10197000068818BF914688F82020E27888F81F2052
:1019800008BF4FF0FF39FF2ADFF8D48017D094F852
:1019900004A04FF0010B0BFA02FB4FF0A04EBAF17E
:1019A000000F4BD0CEF80CB502F5E0724FF0030BF0
:1019B0004EF822B0242202FB068282F81EA0C5F84F
:1019C00008C5C5F80C35A368C5F81095C5F82435C9
:1019D000637B003B18BF0123022932D0032933D097
:1019E000012901D143F00203C5F85435A379C5F8A4
:1019F000C0350723C5F80035019BABB13B68627960
:101A000043F3073152010029C3F30733D2B21EDB7F
:101A1000154C651885F800230122490903F01F03BE
:101A200002FA03F344F82130242303FB0686002343
:101A300073770123337703B0BDE8F08FCEF808B594
:101A4000B2E743F00403CFE743F00603CCE70749CE
:101A500003F00F03CA54E7E70820ECE71120EAE798
:101A60009C0600207118000000E100E014ED00E089
:101A70002DE9F3410679474F242373431446FA189E
:101A80000D46517F8646002940F08180FB5823B1E6
:101A900014F0140F04BF0123537795E80F004FF0A3
:101AA000240C0CFB067C0CF10C0888E80F009CF859
:101AB0001F20FF2A08D09CF81E10012393404FF0EE
:101AC000A042C1B1C2F80835296821B101F06043D4
:101AD000B3F1005F06D1AA6882B102F06043B3F1AE
:101AE000005F0BD0242303FB0676002373771020BE
:101AF00002B0BDE8F081C2F80C35E5E7DEF8003051
:101B00006868C3F84415C3F84805E968C3F8342584
:101B10000022C3F83815C3F81821D3F81821019210
:101B2000019A14F0010218BF0122C3F8502514F0E5
:101B3000020218BF0122C3F8402522075CBF012220
:101B40001A6124227243BA58B2B9D3F81821002A74
:101B5000FBD0242303FB0676F27FFF2A07D0B07F59
:101B6000012393404FF0A04218B1C2F80C35002079
:101B7000BEE7C2F80835BBE714F004004FF040029E
:101B800002D0C3F80823F2E7C3F80423B0E711201A
:101B9000AEE700BF9C0600200023435082B04358AC
:101BA0000193019B02B070470A4610B54FF48E7145
:101BB000FFF7F2FF136A9168C95C136A013313627D
:101BC000C0F81C1510BD8B690A4610B54FF484711E
:101BD00023B9FFF7E1FFD0F8183510BDFFF7DCFFA0
:101BE000536AD168D0F81805C854536A0133536258
:101BF000F3E700001FB501238DF80030044BCDE959
:101C00000110D3E900126846904705B05DF804FB67
:101C1000C006002030B54C48D0F8043313F4007FE0
:101C200085B005464DD0D0F82431002B49D04FF473
:101C30009271FFF7B1FF4FF40173C0F80833434BC3
:101C400093F829200AB9012242603F4902228DF807
:101C50000020D1F88024C1F8802403929A6902926E
:101C6000DA6801920022C3E906226846D3E900122D
:101C700090473548D0F81C315BB134494A690B6A4A
:101C80009A420A464AD991F82830002B46D1FFF7EC
:101C90008BFF2D48D0F844318BB14FF4A271FFF780
:101CA0007BFF2A4B93F829200AB1012202609A692E
:101CB0002AB10022586AD9689A61FFF79BFF05B0E4
:101CC00030BDD5F804335B07D3D5D5F80831002BE8
:101CD000CFD01E4C1C482146FFF775FF636AA269EE
:101CE0009A422346C5D1E269E1684AB12369E360BB
:101CF0000023606AA261E3616362FFF77BFFB8E7DC
:101D000094F829200AB901226A600F4A4FF4017041
:101D1000C2F808030022586A9A61EEE70A484FF4B5
:101D20008E71FFF739FF5369002BB2D051690291D0
:101D3000002391688DF80030019153616846D2E923
:101D400000139847A5E700BF00200040C006002010
:101D50002DE9F843544B057991462C2202FB0532BC
:101D6000064692F82A200C469846002A40F09880B1
:101D70004E490068FFF754FD0746002840F0928066
:101D800021683368481C0BD04FF0A04001228A40E4
:101D9000C0F8082501F5E0724FF0030C40F822C0AE
:101DA0006068421C1FBF00F5E0724FF0A04C4FF07E
:101DB000000E4CF822E0A269C3F8242594F814C060
:101DC000627DBCF1010F4CEA0202C3F86C25C3F836
:101DD0001405C3F80C151DD1A1684A1C1FBF01F5DD
:101DE000E0724FF0A0404FF0000C40F822C0E268D3
:101DF000501C0BD04FF0A04C01209040CCF80805AF
:101E000002F5E0704FF0030E4CF820E0C3F808250F
:101E1000C3F810152C236B4308EB0302C2F804909F
:101E2000226948F80320B9F1000F21D03068247FDF
:101E30004FF48E71FFF7B0FE4FF4A2713068FFF7D8
:101E4000ABFE32681A4BC2F80433110B42F307326F
:101E50006301002ADBB21EDB1648841884F80033C5
:101E60000123520901F01F0103FA01F140F8221089
:101E700033680422C3F800252C2303FB05830022CA
:101E8000C3E9062283F829205A61012283F82A2017
:101E90003846BDE8F883084A01F00F015354E7E7DC
:101EA0000827F5E71127F3E7C0060020151C0000FE
:101EB0008000020000E100E014ED00E0F8B50368E6
:101EC0000479304D0022C3F800252C2202FB045275
:101ED0005268A2B12C4AC3F808231A0B43F3073304
:101EE000002B0CDB02F01F015B0901228A4020332A
:101EF000264941F82320BFF34F8FBFF36F8F00684F
:101F0000D0F80C65D0F81415D0F80835D0F81025A5
:101F10004FF0FF37BE42C0F8147518BF06F5E076E3
:101F2000C0F80C75C0F80875C0F810751EBF4FF0EA
:101F3000A0474FF0020C47F826C04E1C1FBF4FF0C1
:101F4000A04601F5E071022746F82170511C1FBF21
:101F50004FF0A04102F5E072022641F822605A1CBF
:101F60001FBF03F5E0734FF0A042022142F8231097
:101F7000FFF772FC2C2303FB0454002384F82A305F
:101F80006360F8BDC00600208402020000E100E0AA
:101F90002DE9F047204F90F804904FF02C0808FBF3
:101FA000097405466669002E34D162610068A1603B
:101FB00026624FF48E7184F82860FFF7EDFD2868E3
:101FC000012383602146FFF7EFFD6368A0468BB9CC
:101FD0002868D4F814A0236A9A4511D82A68D2F840
:101FE0001C31002BFBD00123D3602C2303FB09738E
:101FF00000225A613046BDE8F08794F828303BB99A
:10200000D0F81C31002BF8D04146FFF7CDFDE2E7B8
:102010000F26EAE71126EDE7C00600200023435013
:1020200082B043580193019B02B070471FB5012352
:102030008DF80030044BCDE90110D3E90012684659
:10204000904705B05DF804FBEC0600207FB5434ADD
:10205000D2F82461002E60D010464FF49271FFF741
:10206000DDFF02238DF80030D2F88034C2F88034CE
:102070000393D2F83C350293394BDA68019200227F
:10208000C3E906226846D3E9001290473348D0F8E6
:10209000443173B14FF4A271FFF7C0FF304B9A691E
:1020A0003AB10022C3E90622D968D0F83C05FFF70F
:1020B000BDFF2A48D0F82031ABB14FF49071FFF743
:1020C000ADFF0123C360264B5A6962B1D0F84C15AD
:1020D0000291002299688DF8002001915A616846AA
:1020E000D3E9001290471D48D0F858319BB14FF406
:1020F000AC71FFF793FF1A4B5A6962B1D0F84C15D7
:102100000291002299688DF8002001915A61684679
:10211000D3E90012904704B070BDD2F81031002B03
:10212000B4D04FF488711046FFF778FF0C4BD2F80B
:102130003C0599698842A9D1DC69D96864B1D2F8B3
:10214000005225F02005C2F800521A699C61DA603D
:10215000DE61FFF76BFF99E79C61FAE70020004022
:10216000EC0600202DE9F8435B4B067991462422CA
:1021700002FB0632044692F820200D469846002ABB
:1021800040F0A58055490068FFF74AFB0746002844
:1021900040F09F8029682368481C0BD04FF0A04076
:1021A00001228A40C0F8082501F5E0724FF0030CC7
:1021B00040F822C06868421C1FBF00F5E0724FF073
:1021C000A04C4FF0000E4CF822E0AA69C3F8242579
:1021D00095F814C06A7DBCF1010F4CEA0202C3F805
:1021E0006C25C3F80C15C3F814051DD1A9684A1C49
:1021F0001FBF01F5E0724FF0A0404FF0000C40F817
:1022000022C0EA68501C0BD04FF0A04C0120904037
:10221000CCF8080502F5E0704FF0030E4CF820E012
:10222000C3F80825C3F810152423734308EB0302F1
:10223000C2F804902A6948F80320B9F1000F30D0A1
:1022400020682A7F4FF48871FFF7E8FE20684FF47A
:102250009071FFF7E3FE20684FF49271FFF7DEFE06
:1022600020684FF4A271FFF7D9FE4FF4AC712068DB
:10227000FFF7D4FE23681A49C3F80413190B43F37C
:1022800007335201002BD2B21CDB1648C51885F863
:10229000002301225B0901F01F0102FA01F140F85D
:1022A000231023680822C3F80025242303FB068398
:1022B0000022C3E906225A61012283F82020384611
:1022C000BDE8F883084B01F00F015A54E9E70827ED
:1022D000F5E71127F3E700BFEC0600204D200000D2
:1022E0001003420000E100E014ED00E0F8B5444DB9
:1022F0000479242303FB045302465B680068ABB1F6
:10230000404BC0F8083340F30733002B4FEA10313D
:102310000CDB01F01F065B090121B14020333A4E6E
:1023200046F82310BFF34F8FBFF36F8FD0F8003202
:1023300023F02003C0F80032242303FB04539B69DD
:102340002BB14FF4A271FFF769FE012343604FF4F4
:10235000AC71FFF763FE0123C360242303FB045326
:10236000D0F858110029FBD0996919B1D0F844115F
:102370000029F5D00023C0F800351368D3F80C7598
:10238000D3F81465D3F80825D3F810154FF0FF3CA7
:102390006745C3F80CC518BF07F5E077C3F814C547
:1023A000C3F808C5C3F810C51EBF4FF0A0434FF0D7
:1023B000020C43F827C0771C1FBF4FF0A04306F55F
:1023C000E076022743F826704E1C1FBF01F5E0712E
:1023D0004FF0A043022643F82160531C1FBF4FF06B
:1023E000A04302F5E072022143F82210FFF734FA0D
:1023F000242303FB0454002384F820306360F8BDD9
:10240000EC0600201003420000E100E001F0604310
:10241000B3F1005F2DE9F041064638D11E4B077934
:10242000242505FB073598466C69002C31D16A617B
:102430000068A9604FF49071FFF7F0FD4FF4AC71A4
:102440003068FFF7EBFD33686A69A968C3F8441583
:10245000C3F8482501229A606A68AAB9D3F82021F6
:10246000D3F858411AB9002CF8D00F2407E0002CFB
:10247000FBD10122DA60D3F85821002AFBD02423B3
:1024800003FB078700237B612046BDE8F081102411
:10249000FAE71124F8E700BFEC06002038B5114B2D
:1024A000114C124901251D70114BE41AE408240453
:1024B00044F003042046FEF7B7FA0E4B1D700E4D94
:1024C0002B786BB10D492046FEF7AEFA284600F096
:1024D000B6FA294682B22046BDE83840FEF7A8BACF
:1024E00038BD00BF19070020C82A0000A72C000033
:1024F000A02A00001807002010070020BB2C0000B5
:1025000070B5012088B0FEF75AFC4FF480410020DE
:10251000FEF7FCF808B1FEF771FCFEF73DF8284B1A
:102520000FCB6C4684E80F00264B0093264A2748C1
:1025300000232146FFF706F808B1FEF75FFC244BA5
:102540002448254D2549264CC01AC008000440F0F7
:102550000300FEF769FA04220021284600F03CFA45
:102560000123237063700423A3701E480494032383
:10257000002204A9CDE905350793FFF779FA08B1E0
:10258000FEF73CFC184B1E461A78002AFCD00022AD
:102590001A704223237013486270042304A9CDE902
:1025A0000535A27004940793FFF762FA08B1FEF7AD
:1025B00025FC3378002BFCD000233370FEE700BFEE
:1025C000DC2C00001A1D1E1F9D240000EC2C0000B6
:1025D000A02A0000C82A000010070020C62C000016
:1025E0001C000020F02C0000180700200B4B1B687B
:1025F0005A1C05BF0A4B0B4A0B4A10680ABF1B78CE
:102600001068C0F30310062B05D1033803288CBFD4
:102610000020012070470020704700BF30010010EB
:10262000E00F00F0E80F00F034010010074B1B78BA
:10263000062B09D1064B1B68C3F30313033B032B83
:1026400002D8044AD05C704700207047E00F00F0C9
:10265000E80F00F0042D000008B5FFF7C7FF28B110
:10266000834B844A1B68C3F304231360FFF7DEFF28
:1026700010B1814B814A1A60FFF7B8FF28B1804B37
:10268000804A1B68C3F342331360FFF7CFFF20B1CA
:102690007D4AD36823F08073D360FFF7A7FF40B172
:1026A0004FF080430022C3F80C21C3F81021C3F877
:1026B0003825FFF7BBFF10B1744B03221A60FFF7F8
:1026C000B5FF40B1724B05221A6001229A670022C1
:1026D0009A603F225A606F4B1A68511C0BBF6E4BB9
:1026E0006E4B1A781B6802BF08331B68C3F30313D1
:1026F000062A4DD1033B032B4AD8694AD35C002BF1
:1027000046D04FF08052674BD2F80414C3F820151E
:10271000D2F80814C3F82415D2F80C14C3F82815FD
:10272000D2F81014C3F82C15D2F81414C3F83015CD
:10273000D2F81814C3F83415D2F81C14C3F8401595
:10274000D2F82014C3F84415D2F82414C3F848155D
:10275000D2F82814C3F84C15D2F82C14C3F850152D
:10276000D2F83014C3F85415D2F83414C3F86015F5
:10277000D2F83814C3F86415D2F83C14C3F86815BD
:10278000D2F84014C3F86C15D2F84424C3F870256D
:10279000FFF72CFF28B1444B444A1B6803F04F035A
:1027A0001360FFF723FF48B14FF08043D3F80024B4
:1027B000D20744BF6FF00102C3F80024354B1B68F9
:1027C000062B0CD1354B1B68033B032B07D8384A2B
:1027D000D35C23B1374A136843F480631360364AED
:1027E000D2F8883043F47003C2F88830BFF34F8FBB
:1027F000BFF36F8F4FF01023D3F80022002A03DBC2
:10280000D3F80432002B2FDA2C4B0122C3F8042515
:10281000D3F80024002AFBD04FF010221521C2F873
:102820000012D3F80024002AFBD04FF01023152209
:10283000C3F80422214B1A46D3F800140029FBD018
:102840000021C3F80415D2F80034002BFBD0BFF3ED
:102850004F8F19491A4BCA6802F4E0621343CB60E8
:10286000BFF34F8F00BFFDE7164B174A1A6008BD34
:10287000240300104035014074C007400DF0ADBA8C
:10288000440200103C050040F0ED00E0A0050040CF
:102890001056004030010010E00F00F0340100102D
:1028A000FC2C000000C0004058020010E40E004064
:1028B000002D00003C17004000ED00E000E001406A
:1028C0000400FA05200000200090D0037F2805D8DE
:1028D000034B185C034B5B5C18407047002070474B
:1028E000142D0000942D0000A0F16103192B98BF56
:1028F00020387047A0F14103192B98BF2030704752
:102900007F2805D8034B185C034B5B5C184070476D
:1029100000207047142D0000942D0000A0F16103E9
:10292000192B98BF20387047A0F14103192B98BF8D
:10293000203070477F299ABF017001206FF02E0070
:1029400070475AB10A787F2A0AD800B10260002184
:1029500019605960501A18BF012070470020704755
:102960006FF02E007047000008B5034B5B689B6852
:102970001B68984708BD00BF2400002008B5092146
:10298000FFF7F2FF08BD844640EA010313F0030F8E
:1029900018D18446202A0BD32DE9F007B1E8F807B7
:1029A000A0E8F807A2F12002202AF7D2BDE8F0073C
:1029B000042A07D351F8043B40F8043BA2F1040277
:1029C000042AF7D2002A05D011F8013B00F8013B98
:1029D000013AF9D1604670478446002A2DD010F0A4
:1029E000030F04D000F8011B013A26D0F7E7C9B263
:1029F00041EA012141EA0141202A12D3A2F1200239
:102A00002DE9F0030B460C460D460E460F46884650
:102A10008946A0E8FA03203AFBD2BDE8F003203251
:102A20000BD0042A05D340F8041B043A05D0042A2D
:102A3000F9D200F8011B013AFBD16046704700F162
:102A4000010110F0030F11D010F8012B002A23D040
:102A500010F0030F0AD010F8012B002A1CD010F040
:102A6000030F03D010F8012B002A15D02DE97000B8
:102A70004FF001324FF0803350F8044BA4EB0205C5
:102A800025EA04051D4000D1F6E7A0F1040070BC62
:0E2A900010F8012B002AFBD1A0EB01007047CB
:102AA0008C2C000000000000932C000000000000AF
:102AB000972C0000000000009C2C0000000000008B
:102AC000A12C0000000000005A2B000000000303AE
:102AD000342C000000000000582C00000000000012
:082AE000722C00000000000050
:102AE8002C2B000000000000382B000014000020F0
:102AF8007C000020440100204C01002084000020BC
:042B080018000000B1
:102B0C00FFFFFFFFFFFFFFFFFFFFFFFFFFFFFFFFC9
:102B1C0000000000000000000000D60106010000CB
:102B2C000105000065050000A104000075617274C8
:102B3C005F6C6F675F6261636B656E6400426163BB
:102B4C006B656E647320666C757368656400617088
:102B5C00700000006C0500207F000000EC050020D8
:102B6C001B5B306D002573001B5B313B33316D00FB
:102B7C0025734C6F67732064726F707065642028C6
:102B8C0025642925730D0A003C25733E2025733AD4
:102B9C002000202530327800202020007C00256386
:102BAC00001B5B313B33306D001B5B313B33326DB3
:102BBC00001B5B313B33336D001B5B313B33346D9E
:102BCC00001B5B313B33356D001B5B313B33366D8A
:102BDC00001B5B313B33376D007761726E696E673A
:102BEC0000696E666F006465627567006C2B00008F
:102BFC00AD2B0000742B0000B52B0000BD2B00008A
:102C0C00C52B0000CD2B0000D52B0000DD2B0000C8
:102C1C0000000000452C0000E52B0000ED2B00000F
:102C2C00F22B0000111213146170705F62757474D2
:102C3C006F6E00466174616C206572726F72005326
:102C4C00797374656D207265736574006170705F63
:102C5C0074696D657200303132333435363738393A
:102C6C00414243444546736F72746C69737400003F
:102C7C00FFFFFFFF0006FF00000000400000000007
:102C8C004750494F544500505253005350494D0042
:102C9C0055415254005541525445005472616E7363
:102CAC0066657220636F6D706C657465642E0020B0
:102CBC0052656365697665643A00535049206578BE
:102CCC00616D706C6520737461727465642E0000A4
:102CDC00FFFFFFFF06FF00000000000801010000DD
:102CEC000000000000300040000000000100000067
:102CFC000000010100000001010000004300000081
:102D0C00504F534958000000202020202020202024
:102D1C00206828282828202020202020202020203F
:102D2C0020202020202020204810101010101010DF
:102D3C0010101010101010108484848484848484E7
:102D4C0084841010101010101081818181818101F8
:102D5C000101010101010101010101010101010157
:102D6C0001010110101010101082828282828202E6
:102D7C000202020202020202020202020202020227
:102D8C000202021010101020000703200417020189
:102D9C000857104080000000082D00000C2E000089
:102DAC00202F000053756E004D6F6E00547565003A
:102DBC00576564005468750046726900536174006D
:102DCC00000000004A616E00466562004D617200B1
:102DDC00417072004D6179004A756E004A756C0045
:102DEC0041756700536570004F6374004E6F760039
:102DFC004465630000000000414D00504D00000090
:102E0C00442F0000402F0000402F0000402F0000F6
:102E1C00402F0000402F0000402F0000402F0000EA
:102E2C00402F0000402F0000FFFFFFFFFFFFFFFFC0
:102E3C00FFFFFFFFFFFF0000802E0000B02D000001
:102E4C00BC2E0000D02D0000042E0000642E0000CB
:102E5C00142F0000702E0000256D2F25642F25796E
:102E6C0000000000256120256220256520255420C6
:102E7C002559000053756E646179004D6F6E646165
:102E8C00790054756573646179005765646E657378
:102E9C006461790054687572736461790046726973
:102EAC00646179005361747572646179000000008B
:102EBC004A616E75617279004665627275617279EC
:102ECC00004D6172636800417072696C004D6179EC
:102EDC00004A756E65004A756C79004175677573AB
:102EEC00740053657074656D626572004F63746F26
:102EFC00626572004E6F76656D6265720044656343
:102F0C00656D62657200000025483A254D3A2553DF
:102F1C0000000000CD280000E9280000F528000082
:102F2C00012900001D290000292900003529000075
:0A2F3C0043290000000000002E00F1
:102F480000000000002000400000000000200040B9
:102F58000000000000000000FF0000000000000169
:102F68000090D003A42D0000A42D0000A42D000083
:082F7800A42D0000A42D0000AF
:040000030000037581
:00000001FF
